:100000008131E629080006347E14803120007F0803
:10001000A800111C6C28111097170130A0002008AF
:100020002100C2073C304206031D6C28013020002D
:10003000A0002008E0072100C2013C30200060063B
:10004000031D6C280130A0002008DF07E0011830F4
:100050005F06031D6C280130A0002008DE07DF01C9
:100060001D305E06031D3C2802306106031D3C283E
:1000700062080339031D5C281E305E06031D4428F8
:100080000230610603195C281F305E06031D5828E4
:100090000430610603195C280630610603195C28E8
:1000A0000930610603195C280B30610603195C28CE
:1000B00020305E06031D62280130A0002008E10701
:1000C000DE01DE0A0D306106031D6C280130A00040
:1000D0002008E207E101E10A8B1C9A288B1000300E
:1000E0002100DA000130D900D430D800C030D70068
:1000F0000030D6000330D500D030D4009030D3008B
:10010000CC01FB01C3018E018D128D108C130C13D9
:100110008C11220097172A00911722009817981621
:1001200021001D1422008D129031BD20803100006D
:100130002000E6010B1CEF280B102700161EC1281B
:1001400016127803031DA9282100C601C60AF8016A
:10015000B62820006603031DB2282100C601F8015D
:10016000F80AB5282100C601F801F901C50182305D
:100170002000A100DD30A000A00BBC28A10BBC28F2
:1001800000322700961DEF2896117803031DD7280B
:100190002100C501C50ACB0182302000A100DD305D
:1001A000A000A00BD128A10BD1280032EF282000FD
:1001B0006603031DEC282100CB01CB0AF8012000C7
:1001C0008D1DDF288230A100DD30A000A00BE628C5
:1001D000A10BE6280032EF282100CB01F801200016
:1001E000111FE1291113803021001C02031CFA2881
:1001F0009C019B011B082000A000A10120082100F8
:10020000B400200021082100B5001C082000A00037
:10021000A1012008A100A00120082100B4072000AE
:1002200021082100B53D3508803A2000A000833028
:100230002002031D1E29843021003402031CA5293D
:100240003830210061061F3003196206031D2A2978
:1002500022008E1321006208803A2000A000803026
:100260002002031D362901302100610203183E29B6
:100270002100E101E20122008E174329FF30210015
:10028000E107FF30E23D210061086204031DDC2923
:100290004108803A2000A00090302002031D53291D
:1002A0000130210040020318972921002408200072
:1002B000A000210025082000A10021002608200020
:1002C000A200210027082000A300210034082000FC
:1002D000A400210035082000A5000030A51BFF3038
:1002E000A600A7002408A0072508A13D2608A23DD6
:1002F0002708A33D0130A336A20CA10CA00C890B4A
:100300007B2923082100A700200022082100A60045
:10031000200021082100A500200020082100A400C1
:100320000130C0070030C13D22008C15DC290B17BD
:1003300021001117FC01FC0AC001C1014030E1009D
:100340001F30E20022008C11DC2921005A08031D15
:10035000BC295908031DBC295808031DBC290230BB
:1003600057020318BC290030DA000030D9000030F1
:10037000D8000130D700D42901302000A00000307F
:10038000A1000030A2000030A30020082100D70205
:10039000200021082100D83B200022082100D93B61
:1003A000200023082100DA3B5703580459045A045B
:1003B000031DDC29C301C30A7C08031DE1292100B8
:1003C0009D1420002808FF007E1009008131E829D3
:1003D000C4308400223085002C30FE000130FF0044
:1003E0009D31CD258131F701F801F901FA01FB01B9
:1003F000FC01E401E501E601A03084000030850045
:100400003330FE000030FF009D31CD2581313D307D
:100410008400013085000C30FE000030FF009D316B
:10042000CD258131803103208131FD00B030840041
:100430009D3085005E308600003087000030FF0070
:1004400006309D31C1258131E83084009D30850022
:10045000D3308600003087000030FF0010309D311F
:10046000C1257E1020008C313C2C00340034003437
:1004700000340034003400345F340034003400347D
:10048000073400340734003414347F3414347F3498
:10049000143424342A347F342A3412342334133469
:1004A0000834643462343634493455342234503498
:1004B0000034053403340034003400341C34223456
:1004C000413400340034413422341C3400341434B8
:1004D00008343E3408341434083408343E340834C4
:1004E00008340034503430340034003408340834D4
:1004F0000834083408340034603460340034003484
:10050000203410340834043402343E345134493435
:1005100045343E34003442347F3440340034423475
:1005200061345134493446342134413445344B34F8
:1005300031341834143412347F34103427344534B1
:100540004534453439343C344A3449344934303400
:1005500001347134093405340334363449344934B0
:100560004934363406344934493429341E3400348D
:1005700036343634003400340034563436340034E3
:100580000034083414342234413400341434143424
:100590001434143414340034413422341434083400
:1005A0000234013451340934063432344934793454
:1005B00041343E347E341134113411347E347F346E
:1005C00049344934493436343E3441344134413479
:1005D00022347F344134413422341C347F34493452
:1005E0004934493441347F340934093409340134FD
:1005F0003E344134493449347A347F340834083441
:1006000008347F34003441347F34413400342034A2
:10061000403441343F3401347F34083414342234BC
:1006200041347F3440344034403440347F340234E9
:100630000C3402347F347F340434083410347F3473
:100640003E344134413441343E347F34093409343A
:10065000093406343E344134513421345E347F341D
:100660000934193429344634463449344934493438
:100670003134013401347F34013401343F344034A7
:10068000403440343F341F342034403420341F344D
:100690003F344034383440343F3463341434083405
:1006A0001434633407340834703408340734613444
:1006B000513449344534433400347F344134413477
:1006C000003402340434083410342034003441340B
:1006D00041347F34003404340234013402340434AD
:1006E0004034403440344034403400340134023427
:1006F00004340034203454345434543478347F3443
:10070000483444344434383438344434443444343D
:10071000203438344434443448347F343834543406
:1007200054345434183408347E34093401340234D7
:100730000C345234523452343E347F34083404344E
:1007400004347834003444347D344034003420346C
:10075000403444343D3400347F341034283444343D
:100760000034003441347F34403400347C34043469
:100770001834043478347C34083404340434783441
:10078000383444344434443438347C3414341434E9
:100790001434083408341434143418347C347C345D
:1007A000083404340434083448345434543454344D
:1007B000203404343F344434403420343C34403416
:1007C000403420347C341C342034403420341C34F5
:1007D0003C344034303440343C34443428341034D5
:1007E000283444340C345034503450343C34443481
:1007F000643454344C344434003408343634413492
:100800000034003400347F34003400340034413488
:1008100036340834003430347C347F347C34303423
:1008200078344634413446347834C0340134C034EA
:100830000134C0340134C0340134C03401340034D4
:100840000034003400340034003400340034003408
:1008500000340034003400340E3400340E340034DC
:100860000E340034003400340034003400340034DA
:1008700000340034003400340034003400340034D8
:1008800000340034003400340034003400340034C8
:1008900000340034003400340034003400340034B8
:1008A000003400340034FC340334FE340734FF34A5
:1008B0000F3403340C3403340C34FF340F34FE345F
:1008C0000734FC3403340034003400340034003482
:1008D000003430340034383400341C340034FF34F5
:1008E0000F34FF340F34FF340F340034003400343D
:1008F0000034003400340C340C340E340E340F3415
:100900000F3483340F34C3340D34FF340C347E344D
:100910000C343C340C3400340034003400340434DF
:1009200003340E3407340F340F3463340C3463341F
:100930000C34FF340F34FE3407349C340334003459
:10094000003400340034C0340134E0340134F8346D
:1009500001349C3401348E340134FF340F34FF34BD
:100960000F34FF340F3480340134003400347834D1
:1009700003347F3407347F340F3433340C3433344E
:100980000C34F3340F34E3340734C3340334003409
:10099000003400340034F8340134FE340734FF34BA
:1009A0000F3423340C3433340C34F7340F34E7343D
:1009B0000734C634033400340034003400340334C4
:1009C00000340334003403340E34C3340F34F334AE
:1009D0000F34FB3400340F3400340334003400345B
:1009E0000034003400349C340334FE340734FF34C4
:1009F0000F3463340C3463340C34FF340F34FE345E
:100A000007349C34033400340034003400343C3464
:100A100006347E340E34FF340E34C3340C34433485
:100A20000C34FF340F34FE340734F834013400340E
:100A30000034013400340A34003464340034E834BF
:100A40000334103427340D340A34203454346534DC
:100A50006D34703465347234613474347534723486
:100A60006534203469346E3474343A342034253497
:100A700064342034643465346734003425343034CD
:100A8000333464346D3467342F3464346C34253437
:100A90003034323464342F342534303432346434D6
:100AA0002F34253430343234643400342534643403
:100AB0002E34253464346D346D346F346C342F34FB
:100AC0004C34203425343034323464343A342534D0
:100AD00030343234643400342034543469346D3466
:100AE00065343D34203425343034323464343A347F
:100AF00025343034323464342034203400342E34FD
:100B00002E342E344634613475346C347434793474
:100B10002034533474347234693470342E342E34A7
:100B200000342E342E342E345334743472346934F9
:100B30007034203449346E34733465347234743410
:100B4000653464340034203420342034203420349C
:100B500020342034203420342034203420342034F5
:100B60002034203420340034203420342034203405
:100B700049346E3473346534723474346534643497
:100B800020342034203420340034203420342034E5
:100B9000533461346D3470346C34653420344E34E5
:100BA0006F3474342034203420340034533474349B
:100BB0007234693470344E346F34743449346E3462
:100BC00073346534723474346534643400345034AE
:100BD0006C3461346334653420347434683465347F
:100BE0002034533461346D3470346C3465340034E3
:100BF0002E342E346D346F346E34743468342034B3
:100C00003D342034253430343234643400344134BB
:100C10004434433420343D34203425346434203487
:100C2000203420342034003447344C345534433499
:100C30004F344D34453454344534523400345534F3
:100C40004E344934563445345234533441344C34A0
:100C500000344D3461346B3469346E34673400349D
:100C60004C346534613472346E3400344234793437
:100C700000342100E601E401E50120000D080139FE
:100C8000D8005808FA007A08031D572F21004C0895
:100C9000031D572F8731F82786310B1720001113BA
:100CA0002100111301309D00E6010830660203188F
:100CB0008F2E85302000D800D80B5C2E21009D148B
:100CC0009D18602E80301C02031C682E9C019B0125
:100CD0001B082000D800D90158082100B4002000CA
:100CE00059082100B5001C082000D800D901580877
:100CF000D900D80158082100B40720005908210064
:100D0000B53D3408E4073508E53D01302000D80042
:100D100058082100E60708306602031C592E6508B2
:100D20002000D900210064082000D800590DD90CFA
:100D3000D80C590DD90CD80C590DD90CD80C580811
:100D40002100E400200059082100E5006508803AF0
:100D50002000D80083305802031DB12E98302100A6
:100D60006402031C222F20001113210011179F3150
:100D70004E2786317F302000BC008530BD009E317B
:100D8000452686312000B401B40A00309E31302659
:100D900086312100E30163082000D800D9015808FA
:100DA000C6005908C7006C30C8008530C9005F080C
:100DB000DA00DB015A08CA005B08CB006008DC00DF
:100DC000DD015C08CC005D08CD009E31AA2686318D
:100DD000210063082000D800D9015808BC00590838
:100DE000BD009E314526863100302100DE000030F6
:100DF000DD00EA30DC006030DB005E085D045C048E
:100E00005B0403191C2F01302000D8000030D900EA
:100E10000030DA000030DB0058082100DB0220003F
:100E200059082100DC3B20005A082100DD3B20004E
:100E30005B082100DE3BFD2E883101208631000059
:100E40000000572F9F314E27863191302000BC0083
:100E50008530BD009E31452686312000B401B40A9C
:100E600000309E3130268631E7302000BC008530CE
:100E7000BD009E31452686312100CC01CC0AFB0104
:100E80000030DA000130D900D430D800C030D700AB
:100E90000030D6000330D500D030D4009030D300DD
:100EA00020001113210011179D1422008D127A03C6
:100EB000031D752F7B08031D752F9F314E2786312B
:100EC0002000B401B40A00309E3130268631A330B0
:100ED0002000BC008530BD009E3145268631FB01D7
:100EE000FB0A2100CC0122008D127A03031D0800A9
:100EF0007B03031D080021005608031D922F55088F
:100F0000031D922F5408031D922F02305302031821
:100F1000922F0030D6000030D5000030D4000130D0
:100F2000D300AA2F01302000D8000030D9000030B3
:100F3000DA000030DB0058082100D30220005908F5
:100F40002100D43B20005A082100D53B20005B083B
:100F50002100D63B5303540455045604031D0800D6
:100F60009F314E278631D6302000BC008530BD0031
:100F70009E31452686312000B401B40A00309E31EE
:100F800030268631A3302000BC008530BD009E3164
:100F90004526863100302100DE000030DD00EA30D9
:100FA000DC006030DB005E085D045C045B04031958
:100FB000F22F01302000D8000030D9000030DA00D4
:100FC0000030DB0058082100DB0220005908210016
:100FD000DC3B20005A082100DD3B20005B0821009B
:100FE000DE3BD32F88310120000000000000080004
:100FF000013021009D00A3309E000F309F000800AB
:101002002000E601E60A2100CC01FB01C301003009
:10101200A7000030A6000030A5000030A400220086
:1010220097138D10FC3021008E0022008D130D13BA
:101032008D128D1021008D170D178D168D14220023
:101042008C130C1321008C170C178C152A0091138A
:1010520022009813981221001D1000006300000066
:1010620000000000080020004908CF004A08D00014
:101072004B08D1000310500D510DD2005208D3007D
:101082005308031D4B280030C9000030CA0000304D
:10109200CB0008004C08CF004D08D0004E08D1000C
:1010A2000310500D510DD2005208D8005808031DEC
:1010B20061280030C9000030CA000030CB000800AF
:1010C20058087B3ECF004F08D3074908CF004A0893
:1010D200D0004B08D1001030D136D00CCF0C890B88
:1010E2006D284F08D2005208D8004C08CF004D0896
:1010F200D0004E08D1001030D136D00CCF0C890B65
:101102007D284F08D2005208D8068030CF004F0801
:10111200D805CA17CD17FF30CC05FF30CD050030FA
:10112200CE050030D4000030D5000030D6000730A4
:10113200CF004F08D700491CA4284C08D4074D08FB
:10114200D53D4E08D63D0130CB36CA0CC90C890BB1
:10115200A5280130CC35CD0DCE0D890BAB28013041
:10116200D702031D9C280930CF004F08D700491C25
:10117200C0284C08D4074D08D53D4E08D63D013055
:10118200CB36CA0CC90C890BC1280130D636D50C16
:10119200D40C890BC7280130D702031DB828540884
:1011A200A9005508AA005608AB005308CF004F0803
:1011B200AC005808D0005008AD009231A0222000A7
:1011C2002908C9002A08CA002B08CB000800200001
:1011D2003C08C2003D08C3003E08C4000310430D92
:1011E200440DC5004508C8003F08C2004008C300BE
:1011F2004108C4000310430D440DC5004508C70053
:1012020048080319102947084802031817294803F8
:10121200FF3A4707C20019304202031C17293F0850
:10122200BC004008BD004108BE0008004708031981
:10123200080048084702031826294703FF3A4807CF
:10124200C20019304202031808000630C2004208E8
:10125200C600BE1BC617C11B4617BD17FF30BC0513
:10126200FF30BD050030BE05C017FF30BF05FF309F
:10127200C0050030C1054708480203186229013041
:10128200BF35C00DC10D890B41290130C702470886
:10129200480603195D290130C602460807390319B9
:1012A2005D2940290130BE36BD0CBC0C890B542986
:1012B2000130C2004208C8074808470603198729B7
:1012C200532948084702031887290130BC35BD0D50
:1012D200BE0D890B67290130C80247084806031969
:1012E20083290130C6024608073903198329662972
:1012F2000130C136C00CBF0C890B7A290130C20003
:101302004208C70748084706031D7929C61F9929BD
:10131200FF30BC06FF30BD06FF30BE060130BC0701
:10132200003003180130BD07003003180130BE073A
:10133200461FAB29FF30BF06FF30C006FF30C10693
:101342000130BF07003003180130C0070030031816
:101352000130C107C6013C08BF073D08C03D3E0839
:10136200C13DC11FC629FF30BF06FF30C006FF3096
:10137200C1060130BF07003003180130C00700303A
:1013820003180130C107C601C60A3F08A900400878
:10139200AA004108AB004808C2004208AC00460857
:1013A200C3004308AD009231A02220002908BC00EE
:1013B2002A08BD002B08BE0008002200B101A501C9
:1013C200B201A601A60AA001A101A201A301A401E2
:1013D200AC01A701AD01A801AE01A901AF01AA01AB
:1013E200B001AB018B100B128B130B1321001113E5
:1013F2000B108B1111108D150D1623008D110D126E
:1014020091314A2189319F314E2789312000B4011F
:1014120000309E31302689312000B401B40A0030F8
:101422009E313026893100002200260803192C2C17
:101432009E310A268931003A0319A32A013020007D
:10144200D00050082200B2079F314E278931200078
:10145200B40100309E3130268931892A0A302000B9
:10146200D0005008A900220032089D31F8258931A8
:1014720022002D072000D10051082200A000942A4A
:101482000A302000D0005008A900220032089D3105
:10149200F825893122002E072000D10051082200B0
:1014A200A100942A0A302000D0005008A90022008E
:1014B20032089D31F825893122002C072000D10005
:1014C20051082200A200942A0A302000D0005008BD
:1014D200A900220032089D31F825893122002F0708
:1014E2002000D10051082200A300942A0A302000D3
:1014F200D0005008A900220032089D31F825893118
:10150200220030072000D10051082200A400942AB2
:101512002200310884000A3004020318942A983108
:101522000435003E820002302000D2000430D10097
:10153200BA30D000D00B9B2AD10B9B2AD20B9B2A0C
:10154200000000009E311D268931003A0319BE2A8F
:1015520001302000D00050082200B10702302000E4
:10156200D2000430D100BA30D000D00BB62AD10B51
:10157200B62AD20BB62A0000000022002508310646
:101582000319172C9F314E2789312000B4010030F6
:101592009E3130268931802B220032082000D00073
:1015A20050082200AD005C2B32082000D000500809
:1015B2002200A8000A302000D0005008A900220012
:1015C20028089D31F825893122002D072000D100FD
:1015D2005108E100F830C6008530C7006108D0002C
:1015E200D1015008C8005108C9009E315C268931DA
:1015F200542B32082000D00050082200AE005C2B91
:1016020032082000D00050082200A9000A30200031
:10161200D0005008A900220029089D31F8258931FF
:1016220022002E072000D1005108DE00542B320880
:101632002000D00050082200AC005C2B32082000B1
:10164200D00050082200A7000A302000D000500825
:10165200A900220027089D31F825893122002C0794
:101662002000D1005108E2002200B201320820001D
:10167200D00050082200AF005C2B32082000D000BE
:1016820050082200AA000A302000D0005008A90009
:1016920022002A089D31F825893122002F072000D7
:1016A200D1005108DF0022005C2B32082000D0005C
:1016B20050082200B000B2018E2B32082000D00068
:1016C20050082200AB000A302000D0005008A900C8
:1016D20022002B089D31F825893122003007200095
:1016E200D1005108E0002200B20101302000D000F8
:1016F20050082200B1078E2BB201B1018E2B2200BD
:101702003108FF3E031C7D2B84000A3004020318BB
:101712007D2B98310435143E820031082000D00020
:1017220050082200A5000B303106031D142CB10114
:101732009F314E2789312000B40100309E3130267E
:1017420089312000B401B40A00309E31302689313B
:101752002200A60103302000D2000830D1007830E8
:10176200D000D00BB22BD10BB22BD20BB22B033049
:101772002000D2000830D1007830D000D00BBF2B2F
:10178200D10BBF2BD20BBF2B03302000D20008306D
:10179200D1007830D000D00BCC2BD10BCC2BD20B7C
:1017A200CC2B03302000D2000830D1007830D0009A
:1017B200D00BD92BD10BD92BD20BD92B0330200034
:1017C200D2000830D1007830D000D00BE62BD10BFC
:1017D200E62BD20BE62B03302000D2000830D100DA
:1017E2007830D000D00BF32BD10BF32BD20BF32B91
:1017F20003302000D2000830D1007830D000D00B66
:10180200002CD10B002CD20B002C03302000D20074
:101812000830D1007830D000D00B0D2CD10B0D2C1C
:10182200D20B0D2C00002700961116120030210059
:10183200DA000130D900D430D800C030D7000030EF
:10184200D6000330D500D030D4009030D300CC0184
:10185200FB01C301152A20008D1D2C2C0D1E2F2CDF
:1018620000008B100B168B170B17210011170B1092
:101872008B15111408009E31C7268C3191314A21F3
:101882008C319F314E278C312000B40100309E31C3
:1018920030268C319F314E278C3103302200B50027
:1018A2008A30B4005630B300B30B552CB40B552C10
:1018B200B50B552C00322000B401B40A0A309E3117
:1018C20030268C3130302000BC008630BD009E3185
:1018D20045268C3102302200B30033082000B400C8
:1018E20017309E3130268C3136302000BC008630D5
:1018F200BD009E3145268C3103302200B3003308EF
:101902002000B4001E309E3130268C312930200058
:10191200BC008630BD009E3145268C3190317B2043
:101922008C319F314E278C312000B401B40A0C3027
:101932009E3130268C311F302000BC008630BD0025
:101942009E3145268C3103302200B300330820003B
:10195200B40006309E3130268C3114302000BC0099
:101962008630BD009E3145268C3106302200B500FE
:101972001330B400B130B300B30BBD2CB40BBD2C8B
:10198200B50BBD2C003220302200B30033082000FA
:10199200AF0000309F31D1278C310D302200B300CF
:1019A20033082000AF0000309F31D1278C31063040
:1019B2002200B5001330B400B130B300B30BDF2CFA
:1019C200B40BDF2CB50BDF2C003220302200B30029
:1019D20033082000AF0000309F31D1278C310C300A
:1019E2002200B30033082000AF0000309F31D1271E
:1019F2008C3106302200B5001330B400B130B30090
:101A0200B30B012DB40B012DB50B012D00329D2D11
:101A12008931DE218C312100CB012000E601E60A6A
:101A22000000883101208C310000000000009D2D53
:101A3200C6010030DE000030DD00EA30DC0060303C
:101A4200DB005E085D045C045B040319412D013078
:101A52002200B3000030B4000030B5000030B60000
:101A620033082100DB02220034082100DC3B220083
:101A720035082100DD3B220036082100DE3B222D05
:101A8200883101208C310000000000009D2D2000D3
:101A92006508031D612D7908031D612D91314A21CD
:101AA2008C319F314E278C312000B401B40A0030B2
:101AB2009E3130268C312100C501F901F90A9D2D94
:101AC2002000650803199D2D7908031D7E2D913193
:101AD2004A218C3120006508FF3E93317A238C31F4
:101AE200933105238C31F901F90A20006508FF3E84
:101AF2002200B3003308F7009D2D21004508031989
:101B02009D2D77080319882D0130F7028F2D2000B3
:101B12006508FF3E2200B3003308F70077089331CF
:101B22007A238C31933105238C312100C5019D2DFF
:101B3200000063000000000021004B030319092D7F
:101B4200210046030319192D78030319482D20009B
:101B52006608031D992D32302200990086313926FC
:101B62008C317C03031DB22FFC0121002708A30046
:101B72002608A2002508A1002408A0002108BF0011
:101B82002008BE00943179248C3121002B082000DA
:101B9200A90021002C082000AA0021002D08200005
:101BA200AB009331F2238C3120002A082100E0009F
:101BB200200029082100DF006008803A2200B300DB
:101BC20080303302031DE82D013021005F0203182B
:101BD200ED2D2100DF01E00100302000B100903046
:101BE200B2004130B30021002B082000B4002100D4
:101BF2002C082000B50021002D082000B6009531E8
:101C02000C258C31200031082100AE002000320862
:101C12002100AF00200033082100B0002E08200070
:101C2200A90021002F082000AA002100300820006E
:101C3200AB009331F2238C31200029082200B3003B
:101C420033082000E3000030C9002030CA004130D0
:101C5200CB0021002E082000BC0021002F0820000C
:101C6200BD00210030082000BE0063089E317326AB
:101C72008C3120003108B9003208BA003308BB00A9
:101C8200903101208C3120003908BF003A08C00091
:101C92003B08C1008831E8208C3120003C08CC0090
:101CA2003D08CD003E08CE00883134208C31200022
:101CB20049082100B10020004A082100B20020009A
:101CC2004B082100B30031082000A900210032088E
:101CD2002000AA00210033082000AB009331F22338
:101CE2008C31200029082200B3003308FD002000B7
:101CF20063080319E3017D080319FD019F314E2793
:101D02008C312100E80168082200B300B4013308D5
:101D12002000C600220034082000C7003E30C80060
:101D22008530C900210060082000CB0021005F0837
:101D32002000CA0061082200B500B6013508200063
:101D4200CC00220036082000CD005E082200B70039
:101D5200B80137082000CE00220038082000CF004A
:101D620062082200B900BA0139082000D00022001E
:101D72003A082000D1009E31AA268C312100680841
:101D82002200B300B40133082000BC002200340852
:101D92002000BD009E3145268C312000B401B40ADA
:101DA20000309E3130268C312100E8016808220083
:101DB200B300B40133082000C6002200340820001A
:101DC200C7000730C8008630C90021003F08200044
:101DD200CB0021003E082000CA009E31AA268C3189
:101DE200210068082200B300B40133082000BC00BF
:101DF200220034082000BD009E3145268C3121008E
:101E0200E80168082200B300B40133082000C600CC
:101E1200220034082000C7005630C8008530C900AF
:101E220063082200B500B60135082000CA0022006E
:101E320036082000CB007D082200B700B801370821
:101E42002000CC00220038082000CD005F082200CC
:101E5200B900BA0139082000CE0022003A08200059
:101E6200CF0060082200BB00BC013B082000D0006C
:101E720022003C082000D1009E31AA268C3121008C
:101E820068082200B300B40133082000BC0022001D
:101E920034082000BD009E3145268C312100E80126
:101EA20068082200B300B40133082000C6002200F3
:101EB20034082000C7002330C8008530C900210043
:101EC2003B082000CB0021003A082000CA009E31C6
:101ED200AA268C31210068082200B300B40133081D
:101EE2002000BC00220034082000BD009E3145269F
:101EF2008C3192313C228C3122008D100130210034
:101F02009D000030DE000030DD00EA30DC00603091
:101F1200DB005E085D045C045B040319A92F013039
:101F22002200B3000030B4000030B5000030B6002B
:101F320033082100DB02220034082100DC3B2200AE
:101F420035082100DD3B220036082100DE3B8A2FC6
:101F520020000D1CA92F883101208C3100000000C7
:101F6200000021004303031D9D2DC3019F314E2715
:101F72008C31C5302000BC008530BD009E31452625
:101F82008C312000B401B40A00309E3130268C31ED
:101F9200B4302000BC008530BD009E3145268C3116
:101FA20000302100DE000030DD00EA30DC0060306D
:101FB200DB005E085D045C045B040319F92F013049
:101FC2002200B3000030B4000030B5000030B6008B
:101FD20033082100DB02220034082100DC3B22000E
:101FE20035082100DD3B220036082100DE3BDA2FD6
:0E1FF200883101208C310000000000009D2D80
:1020020020003B083A043904031908008030BB065B
:1020120008002000AF01B00129082A0403193A2858
:10202200AE01AE0AAA1B1F280130A935AA0D890BE1
:1020320016280130AD002D08AE0713280130AF3548
:10204200B00D890B20282A082C02031D2A282908F2
:102052002B02031C31282908AB022A08AC3B2F149F
:102062000130AA36A90C890B32280130AE02031DB9
:102072001F283008AA002F08A90008002000AB1F63
:1020820056282909AF002A09B0002B09B100AF0A6E
:102092000319B00A0319B10A00302F07A900003052
:1020A200303DAA008030313DAB00AE1F6C282C09B8
:1020B200AF002D09B0002E09B100AF0A0319B00A12
:1020C2000319B10A00302F07AC000030303DAD00DB
:1020D2008030313DAE008030AB068030AE062E0837
:1020E2002B02031D08002D082A02031D08002C08DC
:1020F2002902080003302000AB000830AA00783023
:10210200A900A90B8228AA0B8228AB0B82280330D4
:102112002000AB000830AA007830A900A90B8F2854
:10212200AA0B8F28AB0B8F2803302000AB0008309E
:10213200AA007830A900A90B9C28AA0B9C28AB0BFB
:102142009C2803302000AB000830AA007830A90098
:10215200A90BA928AA0BA928AB0BA9280330200098
:10216200AB000830AA007830A900A90BB628AA0B48
:10217200B628AB0BB628080021008E110E128E1263
:102182000E138E1322000E128E128E118E13033036
:10219200F6009730F500F50BCC28F60BCC28003270
:1021A20022008E172130F5007508F00000309F31B3
:1021B20029279031BB30F5007508F00000309F31BF
:1021C200292790310430F5007508F00000309F3166
:1021D200292790311430F5007508F00000309F3146
:1021E200292790312030F5007508F00000309F312A
:1021F200292790310C30F5007508F00000309F312E
:1022020029270800220097171708F3390838970082
:102212001708FC39023897003F3023008C003F300A
:1022220021008C0023008C1121008C118D012300D0
:102232008D0121000D148D1622008D1021000D1527
:1022420023000D1521008D150D16270015161612E7
:102252009515961122008D1221008E012A009117E8
:1022620011131114911422009817981618101808B7
:10227200F3390838980021001513073095048B10A4
:102282000B168B170B1711170B108B1523009714B6
:10229200080021008E110E128E120E138E132200D0
:1022A2000E128E128E118E1303302000B50097305D
:1022B200B400B40B5A29B50B5A29003222008E17EA
:1022C20021302000B4003408AF0000309F31D12704
:1022D2009131BB302000B4003408AF0000309F3190
:1022E200D127913104302000B4003408AF0000300F
:1022F2009F31D127913114302000B4003408AF004F
:1023020000309F31D127913120302000B4003408B1
:10231200AF0000309F31D12791310C302000B40042
:102322003408AF0000309F31D12708002000AF01F0
:10233200AA1FA229A909AA09A90A0319AA0AAF016F
:10234200AF0AAC1FAD29AB09AC09AB0A0319AC0A41
:102352000130AD002D08AF06B001B10129082A04F1
:102362000319DC29AE01AE0AAA1BC1290130A93525
:10237200AA0D890BB8290130AD002D08AE07B52989
:102382000130B035B10D890BC2292A082C02031D78
:10239200CC2929082B02031CD3292908AB022A08BD
:1023A200AC3B30140130AA36A90C890BD429013078
:1023B200AE02031DC1292F080319E429B009B1098E
:1023C200B00A0319B10A3108AA003008A9000800AE
:1023D2002000B900AF0101309F31D1279131200097
:1023E200BA01BB013B08803AB40080303402031DBD
:1023F200FC2905303A020318362A20003908E03E4B
:10240200A900FF3003180030AA000530AB000030ED
:10241200AC009E318E26913135302000B4008230DE
:10242200B50029083407B6002A08353DB70036083A
:102432003A07840037083B3D85000008B800380899
:10244200AF0001309F31D127913101302000BA070E
:102452000030BB3D3B08803AB40080303402031D9B
:10246200342A05303A02031CFE292000AF01013054
:102472009F31D12708002030200065060319E501AD
:102482006508AD000230AD35FF3E031D442A2D35EF
:10249200AE002E08E4006508AD002D08A90064080E
:1024A2009F317827923120006308AD002D08A900E2
:1024B2006408013E9F31782792317D082000AD00EB
:1024C2002D08A9006408023E9F317827923120002E
:1024D2005F08AD002D08A9006408033E9F317827EC
:1024E200923120006008AD002D08A9006408043E66
:1024F2009F317827923120006108AD002D08A90094
:102502006408053E9F317827923120005E08AD00B5
:102512002D08A9006408063E9F31782792312000D9
:102522006208AD002D08A9006408073E9F31782794
:1025320001302000AD002D08E50700000800200052
:102542002C080319A92A2B082A042904031DBA2AD4
:102552000030A9000030AA000030AB0008000130B2
:10256200AE002E08AC070130AB36AA0CA90C890BC1
:10257200B52AFE302B050319D32AB02A0130AE004A
:102582002E08AC070130A907003003180130AA0752
:10259200003003180130AB070130AB36AA0CA90C8E
:1025A200890BCE2AFF302B050319E02ABF2A0130FE
:1025B200AC020130A935AA0DAB0D890BDB2AAA1B8F
:1025C200E62A02302C020318D82A2C18EE2AFF30F1
:1025D200A9057F30AA05FF30AB050310AC0C2C080F
:1025E200AE00AF01B0011030AE35AF0DB00D890BAA
:1025F200F52A2E08A9042F08AA043008AB042D08D6
:1026020003190800AB17080000302100E500003074
:10261200E6000030E700E301E4010A302000A900EF
:102622000030AA0021004E082000D900DA01590822
:10263200AB005A08AC0091319721933121004F0829
:1026420020002907B2002A0803182A0AB3009F3182
:1026520007279331200032082100E50020003308CB
:102662002100E600200034082100E70000302000AD
:10267200C9009030CA004130CB002100650820001B
:10268200CC00210066082000CD0021006708200050
:10269200CE00883134209331200049082100E50022
:1026A20020004A082100E60020004B082100E70034
:1026B20065082000A900210066082000AA00210068
:1026C20067082000AB009331F223933120002A08DF
:1026D2002100E400200029082100E3009F314E2759
:1026E20093312000B401B40A00309E31302600003C
:1026F20008002000AF002F08AD000230AD35FF3ECC
:10270200031D7F2B2D35AE002E08E40064089E3198
:10271200E62693312000AD002D082100CA000130C9
:102722002000AD002D08E40764089E31E6269331AF
:102732002000AD002D082100CF0001302000AD00A7
:102742002D08E40764089E31E62693312000AD008F
:102752002D082100CE0001302000AD002D08E40735
:1027620064089E31E62693312000AD002D08210039
:10277200C70001302000AD002D08E40764089E3137
:10278200E62693312000AD002D082100C80001305B
:102792002000AD002D08E40764089E31E62693313F
:1027A2002000AD002D082100C90001302000AD003D
:1027B2002D08E40764089E31E62693312000AD001F
:1027C2002D082100C40001302000AD002D08E407CF
:1027D20064089E31E6262000AD002D082100CD00C0
:1027E200080020002908AD002A08AE002B08AF001F
:1027F20003102E0D2F0DB0003008B6003608031D51
:102802000B2C0030AC000030AB000030AA000030CE
:10281200A90008002908AD002A08AE002B08AF0065
:102822001730AF36AE0CAD0C890B122C2D08B00050
:102832003008B100AA17FF30A905FF30AA05003001
:10284200AB052908B2002A08B3002B08B400B50171
:102852008E30B602B61F492C3608803A8F3E0318D6
:102862003B2C0030AC000030AB000030AA0000303E
:10287200A90008000130B536B40CB30CB20C890BB8
:102882003C2C0130AD002D08B6070319622C3B2CFD
:1028920018303602031C5F2C0030AC000030AB0055
:1028A2000030AA000030A90008000130B235B30D93
:1028B200B40DB50D890B572C0130B6023608031D35
:1028C200562C31080319702CB209B309B409B509A1
:1028D200B20A0319B30A0319B40A0319B50A35086F
:1028E200AC003408AB003308AA003208A900080083
:1028F20021003F082000B30021003E082000B20062
:102902009F3107279431200032082100D000200097
:1029120033082100D100200034082100D200003009
:102922002000A900AF30AA004430AB0021005008BB
:102932002000AC00210051082000AD002100520807
:102942002000AE0090313F209431031CDA2C00307D
:102952002000BC00B830BD00C330BE005830C900F2
:10296200B930CA003E30CB00210050082000CC0014
:10297200210051082000CD00210052082000CE0085
:1029820088313420943120004908BF004A08C00031
:102992004B08C1008831E82020003C082100AB0030
:1029A20020003D082100AC0020003E082100AD00BF
:1029B200080000302000BC00B830BD00C330BE00AB
:1029C2005830C900B930CA003E30CB00210050084F
:1029D2002000CC00210051082000CD002100520827
:1029E2002000CE0088313420943120004908BF00F5
:1029F2004A08C0004B08C1008831E82020003C088A
:102A02002100AB0020003D082100AC0020003E0860
:102A12002100AD00080020003408B7003508B800D6
:102A22003608B9000310380D390DBA003A08BF0054
:102A32003F08031D232D0030B1000030B2000030EA
:102A4200B30008003108B7003208B8003308B900F3
:102A52000310380D390DBA003A08C0004008031DB2
:102A6200392D0030B1000030B2000030B300080050
:102A72000030BC000030BD000030BE00893040078D
:102A8200B7003708BF023408B7003508B800360867
:102A9200B9001030B936B80CB70C890B4B2D37087A
:102AA200BA003A08C0003108B7003208B80033084B
:102AB200B9001030B936B80CB70C890B5B2D37084A
:102AC200BA003A08C0068030B7003708C005B5170B
:102AD200FF30B405FF30B5050030B605B217FF3040
:102AE200B105FF30B2050030B3051830B700370822
:102AF200BB000130BC35BD0DBE0D890B7B2D3308EB
:102B02003602031D8A2D32083502031D8A2D310833
:102B12003402031C932D3108B4023208B53B33084A
:102B2200B63B3C140130B435B50DB60D890B942D6E
:102B32000130BB02031D7A2D3C08A9003D08AA0002
:102B42003E08AB003F08B7003708AC004008B800A9
:102B52003808AD009231A02220002908B1002A08CD
:102B6200B2002B08B30008002000C500200038087E
:102B7200BB003708BA00B70A0319B80A3A0884003A
:102B82003B0885000008BC003C08C4004408031947
:102B9200FC2F253044060319FB2D4508023E860012
:102BA2008701160001040319E42D4408BA003A080B
:102BB200A9004508023E86008701413F8A00403F46
:102BC2000A009531B72D2000450886008701403F55
:102BD200BA00413FBB003A0886003B088700440820
:102BE20081004508860087010130810741310318C1
:102BF200810AB72DC201C301C101042E4115013062
:102C0200B7070030B83D370884003808850000084F
:102C1200303A0319FF2D0D2E37088400380885003D
:102C220000089D31D9259531031C482E2000C20190
:102C3200C3010A302000A9000030AA004308AC00FA
:102C42004208AB009E318E26953120002A08C3002F
:102C52002908C20037088400380885000008D03EE1
:102C6200BA00FF3003180030BB003A08C2073B0825
:102C7200C33D0130B7070030B83D3708840038083B
:102C8200850000089D31D925953103181A2E2000A0
:102C92003808BB003708BA00B70A0319B80A3A085D
:102CA20084003B0885000008C400003A0319FC2F89
:102CB200643A0319602E0D3A0319602EB72D2000D5
:102CC20039088600870101088400850102308107E6
:102CD200003FBF00013FC000C01F782E0330BA0082
:102CE2003A08C104BF09C009BF0A0319C00AC401D6
:102CF200C40A0530440603199D2E4408BA00BB01DC
:102D0200BA35BB0D19303A07840085303B3D85004A
:102D1200003FBC00013FBD003D084002031D932E51
:102D22003C083F02031C9D2E0130BA003A08C4073A
:102D320005304406031D7E2E420843040319A92EC2
:102D4200410803390319A92EFF30C207FF30C33DE2
:102D52004408BA00BB01BA1BBB033B08803ABC0063
:102D62004308803A3C02031DB82E42083A02031877
:102D7200C52E20004408BA00BB01BA1BBB033A08A7
:102D8200C2023B08C33BC82E2000C201C301411D41
:102D9200312F410803390319FA2E4508023E8600F5
:102DA2008701160001040319E42E2D30BA003A08F7
:102DB200A9004508023E86008701413F8A00403F44
:102DC2000A009631FA2E2000450886008701403F0E
:102DD200BA00413FBB003A0886003B0887002D300D
:102DE20081004508860087010130810741310318BF
:102DF200810A20004208430403199A2F4508023E23
:102E020086008701160001040319152F3030BA001D
:102E12003A08A9004508023E86008701413F8A0020
:102E2200403F0A0097312B2F20004508860087017A
:102E3200403FBA00413FBB003A0886003B0887008A
:102E42003030810045088600870101308107413119
:102E52000318810AFF302000C207FF30C33DFB2E5A
:102E62004208430403196A2F4508023E860087017F
:102E72001600010403194B2F2030BA003A08A900AA
:102E82004508023E86008701413F8A00403F0A0012
:102E92009731612F2000450886008701403FBA0024
:102EA200413FBB003A0886003B0887002030810082
:102EB2004508860087010130810741310318810AE4
:102EC200FF302000C207FF30C33D42084304031D08
:102ED200352F4108033903199A2F4508023E86000F
:102EE2008701160001040319842F2D30BA003A0815
:102EF200A9004508023E86008701413F8A00403F03
:102F02000A0097319A2F2000450886008701403F2A
:102F1200BA00413FBB003A0886003B0887002D30CB
:102F2200810045088600870101308107413103187D
:102F3200810A20004408BA003A08BE00FF3020008F
:102F4200BA003A08BE073E0A0319B72D0A30B1008B
:102F52000030B2003E08BA00BB01BA35BB0D1930D1
:102F62003A07840085303B3D8500003FA900013FC0
:102F7200AA004008AC003F08AB0090310A2095310E
:102F820020002A08B4002908B3009F31A4279531F4
:102F920020003108303EBC003C08C4004508023E17
:102FA20086008701160001040319E52F4408BA00C0
:102FB2003A08A9004508023E86008701413F8A007F
:102FC200403F0A0097319F2F200045088600870165
:102FD200403FBA00413FBB003A0886003B088700E9
:102FE200440881004508860087010130810741318C
:102FF2000318810A9F2F2000B701B80108008A3107
:10300200942A8A312F2A8A31942A8A31412A8A3192
:10301200942A8A31532A8A31942A8A31652A8A313A
:10302200942A8A31772A8A31CD2A8A31D52A8A315D
:10303200FA2A8B31012B8B31182B8B311F2B8B31C1
:0E304200372B8B313E2B8B31562B8B315E2B77
:103B5800683021009900080001340A340A3401341D
:103B68000D340734200018083F398038980098151C
:103B780018141815210011140800FE0012001E0068
:103B88000130FE020030FF3B7F087E040319003439
:103B9800C22D6400800101310130FE020030FF3B7C
:103BA8007F087E0403190034CE2D2000AA00A90145
:103BB8003A302A020318E62D30302A02031CE62D7B
:103BC800A901A90A290C08009034D0340334003420
:103BD800C034D43401340034A03486340134003481
:103BE8003234003440341F342000AC00AB012C1CAC
:103BF800012E2908AA002A08AB070310A90D0310F3
:103C0800AC0C2C08031DFB2D2B0808002000AA0172
:103C1800AA0A0D081039A9002908AA002A080319B8
:103C2800172E003008000D1E172E2700161201301F
:103C380008002000AA01AA0A0D080839A9002908C5
:103C4800AA002A0803192A2E003008008D1D2A2EE2
:103C580027009611013008002000B6003608803889
:103C6800B5003508AF0000309F31D1279E312000C4
:103C780034084038B5003508AF0000309F31D127EF
:103C8800080020003C0884003D0885001200031944
:103C9800080020003C0884003D0885000008913198
:103CA800E9219E3101302000BC070030BD3D452E82
:103CB8002000CC01CD010230CE000030CF004830CA
:103CC800CA004A08CB004708B8004608B7004B307E
:103CD800CA004A08B9004C309531B52508002000C3
:103CE800B8003808B400B501B6013408A900350891
:103CF800AA003608AB008E30B7003708AC00AD011B
:103D08009231A02220002908B1002A08B2002B080D
:103D1800B30008002000AD01AE01291C972E2B0826
:103D2800AD072C08AE3D0130AB35AC0D890B982E94
:103D38000130AA36A90C890B9D2E29082A04031DD7
:103D4800912E2E08AA002D08A90008002000470877
:103D5800D5004608D400D601D7014A30D20052080F
:103D6800D3004908B8004808B7005330D2005208B9
:103D7800B90054309531B5252000540886005508FF
:103D88008700810108009D31AC259E3191310321C6
:103D98009E319D31B6259E318731F8279E3191316C
:103DA8004A2100302100D6000330D500D030D4009D
:103DB8009030D30022008D148C112000E5012100E1
:103DC800C30108002000AC00EA2E20006400230094
:103DD8009518E92E20002C08A900AA01290823001B
:103DE800910020002A08230092003F302000AB00F9
:103DF8002B0823009505151403101518031400301B
:103E0800093D130808002000B701B31F122FB2099B
:103E1800B309B20A0319B30AB701B70A3208A900ED
:103E28003308AA00AB018E30B5003508AC0037085E
:103E3800B6003608AD009231A02220002908B20051
:103E48002A08B3002B08B4000800F2007008F1003B
:103E58007108F3007208031D342F22008E11362FCB
:103E680022008E150E13F4010830740203184C2F2B
:103E78000E12F31F402F0E168E160310F30D8E121E
:103E88000130F1007108F40708307402031C3C2F5C
:103E98000E1708002000B801B9013908803AB700A8
:103EA80081303702031D5A2FF83038020318722F59
:103EB8002000AF0101309F31D1279F310130200010
:103EC800B8070030B93D3908803AB7008130370269
:103ED800031D702FF8303802031C5C2F2000B4013A
:103EE80000309E31302608002000AC0023009518D1
:103EF8007A2F20002C08AA00AB012A082300910081
:103F080020002B082300920020002908230093009A
:103F18003F302000AA002A0823009505200003103E
:103F28008B1B03148B132300151555309600AA30EC
:103F38009600951415112000031C08008B17080023
:103F48002000310832040319CC2FB601B60AB21B7F
:103F5800B72F0130B135B20D890BAE2F0130B50046
:103F68003508B607AB2F32083402031DBD2F3108C0
:103F78003302031CC32F3108B3023208B43B0130AB
:103F8800B236B10C890BC42F0130B602031DB72F0E
:103F98003408B2003308B10008002000B1002F082F
:103FA800B0003008B2003108031DDD2F22008E1149
:103FB800DF2F22008E150E132000B30108303302C4
:103FC8000318FD2F22000E122000B21FED2F220031
:103FD8000E1622008E1603102000B20D22008E123B
:103FE80001302000B0003008B30708303302031C4A
:083FF800E62F22000E1708005D
:020000040001F9
:04000E00E4C9FFDE64
:00000001FF
